:0400000074EF02F0A7
:08000800046ED8CF05F0E0CF33
:1000100006F00001E9CF0CF0EACF07F0E1CF08F0DD
:10002000E2CF09F0D9CF0AF0DACF0BF0F3CF12F01C
:10003000F4CF13F0FACF14F000C00EF001C00FF0AF
:1000400002C010F003C011F09DA02AEF00F09EB096
:1000500070EF00F00EC000F00FC001F010C002F011
:1000600011C003F00CC0E9FF07C0EAFF078E08C00B
:10007000E1FF09C0E2FF0AC0D9FF0BC0DAFF12C0DE
:10008000F3FF13C0F4FF14C0FAFF045006C0E0FFF2
:1000900005C0D8FF10000900F5520DE0F6CF2BF097
:1000A000F7CF2CF0F5509EA8FED7AD6E2BC0F6FF13
:1000B0002CC0F7FFF0D71200EA6A2C0EE96EEF5061
:1000C0000DE0060E016E006A002EFED7012EFBD752
:1000D0007B0E006E002EFED7EF2EF3D70AEF02F054
:1000E000CE50CFCF03F0DC0F2B6E0B0ECF202D6A3E
:1000F000D894D8B02D2ACF6E2BC0CEFF036A2750DC
:10010000220F016E000E032201C029F003C02AF065
:1001100021B406D0480EF66E040EF76EBCDF2184C3
:10012000010E1826D8B0192AD8B41A2AD8B41B2A16
:100130001BBE0DD01B5207E11A5205E1195203E113
:100140001850040804E21B6A1A6A196A186A18C06F
:1001500000F01950036E03E1010E005C12E0035041
:1001600003E1020E005C4FE0035004E1030E005C6B
:10017000D8B48BD0035004E1040E005CD8B4C7D0CF
:10018000FCD08C9095908C8295928C8495948C86E2
:100190009596938081B010D0310E9EA8FED7AD6E9B
:1001A0001B681A681968DC0E186E29C0E9FF2AC09E
:1001B000EAFF010EEF6E272A938281B210D0320E31
:1001C0009EA8FED7AD6E1B681A681968DC0E186E03
:1001D00029C0E9FF2AC0EAFF020EEF6E272A9384A6
:1001E00081B410D0330E9EA8FED7AD6E1B681A687E
:1001F0001968DC0E186E29C0E9FF2AC0EAFF030E59
:10020000EF6E272ABAD08C8095908C9295928C8430
:1002100095948C869596938081B010D0340E9EA8CC
:10022000FED7AD6E1B681A681968DC0E186E29C0FF
:10023000E9FF2AC0EAFF040EEF6E272A938281B2FB
:1002400010D0350E9EA8FED7AD6E1B681A681968CF
:10025000DC0E186E29C0E9FF2AC0EAFF050EEF6E1A
:10026000272A938481B410D0360E9EA8FED7AD6E97
:100270001B681A681968DC0E186E29C0E9FF2AC0CD
:10028000EAFF060EEF6E272A78D08C8095908C823C
:1002900095928C9495948C869596938081B010D08D
:1002A000370E9EA8FED7AD6E1B681A681968DC0E63
:1002B000186E29C0E9FF2AC0EAFF070EEF6E272A51
:1002C000938281B210D0380E9EA8FED7AD6E1B6807
:1002D0001A681968DC0E186E29C0E9FF2AC0EAFF07
:1002E000080EEF6E272A938481B410D0390E9EA891
:1002F000FED7AD6E1B681A681968DC0E186E29C02F
:10030000E9FF2AC0EAFF090EEF6E272A36D08C805B
:1003100095908C8295928C8495948C9695969380EA
:1003200081B00BD06A0EF66E040EF76EB4DE1B6859
:100330001A681968DC0E186E2182938281B20FD080
:10034000300E9EA8FED7AD6E1B681A681968DC0EC9
:10035000186E29C0E9FF2AC0EAFFEF6A272A9384B2
:1003600081B40BD0720EF66E040EF76E94DE1B682D
:100370001A681968DC0E186E218021A211D0276A34
:10038000275004080AE3036A2750220FE96E000E83
:100390000320EA6EEF6A272AF3D721942192276A75
:1003A00021A04FD0276A275004081EE3036A275074
:1003B0001C0FE96E000E0320EA6EEFCF2BF0036AEC
:1003C0002750220FE96E000E0320EA6EEF502B5CDF
:1003D00009E1282A036A2750220FE96E000E032044
:1003E000EA6EEF6A272ADFD7285005081FE1780E4A
:1003F000F66E040EF76E4FDE959C8C8C959E8C9E4F
:100400008C0EF66E040EF76E46DE140E2B6EFA0E90
:100410002C6E52D62B2EFBD7A60EF66E040EF76E60
:100420003ADE959C8C9C2190219409D0BE0EF66EEC
:10043000040EF76E30DE959E8C8E21902194276AF3
:10044000286A9E902AEF00F0506F72206661766FE6
:10045000722C206469676974652073756120736507
:100460006E68613A0A2D2D3E20000A09272A270AC4
:1004700000000A09272327000A4C6564207665726C
:100480006465206C696761646F210A004C656420B3
:100490007665726D656C686F206465736C69676101
:1004A000646F210A00004C656420766572646520E3
:1004B0006465736C696761646F210A0A00000A53FE
:1004C000656E686120696E636F7272657461210A7E
:1004D0004C6564207665726D656C686F206C696729
:1004E00061646F210A0A0000F86AD09E078EB88600
:1004F000080EAF6E020EB06EA60EAC6E900EAB6E16
:100500001B6A1A6A196A186A219021922194C150B3
:10051000C00B0F09C16E070EB46E166A176A070E7C
:100520001C6E1D6A010E1E6E040E1F6E070E206EDD
:10053000226A236A246A256A266A276A286AF19E43
:0E054000C00EF2129D80850ECD6EFFD7030017
:020000040030CA
:0E00000024CC3E1E0087A1000FC00FE00F4071
:00000001FF
;PIC18F4550
;CRC=4815  CREATED="24-ago-21 23:32"
